:100000001BC035C034C033C032C032C030C02FC076
:100010002EC02DC02CC02BC02AC029C028C027C08C
:1000200026C025C0CFC145C422C021C020C01FC0EA
:100030001EC01DC03839383911241FBECFEFD4E09F
:10004000DEBFCDBF11E0A0E0B1E0E6E8F9E002C01C
:1000500005900D92A836B107D9F721E0A8E6B1E0E6
:1000600001C01D92A33AB207E1F774D28AC4C8CF87
:100070001F920F920FB60F9211242F933F934F931D
:100080005F936F937F938F939F93AF93BF93EF9300
:10009000FF938BB1897F80939A018BB988B1897E58
:1000A00080939A0188B92FEF80E792E02150804039
:1000B0009040E1F700C000008091700190917101C3
:1000C0008230910518F0039709F06BC1459A4C995D
:1000D0004BC0449A5A9A86E990E00197F1F74C99FF
:1000E00010C080E091E0A4D380916A0190916B01EF
:1000F000019690936B0180936A0181E380939D0147
:10010000CCC05B9A449886E990E00197F1F74C994E
:1001100010C080E091E08CD380916A0190916B01D6
:10012000019690936B0180936A0182E380939D0115
:10013000B4C0449A5A9886E990E00197F1F74C9937
:100140000FC080E091E074D380916A0190916B01BF
:10015000019690936B0180936A0183E380939D01E4
:100160005B9845985A9899C04D994BC0449A5A9AB1
:1001700084E690E00197F1F74D9910C080E091E09E
:1001800057D380916A0190916B01019690936B0116
:1001900080936A0184E380939D017FC05B9A4498B9
:1001A00086E990E00197F1F74D9910C080E091E069
:1001B0003FD380916A0190916B01019690936B01FE
:1001C00080936A0185E380939D0167C0449A5A98A1
:1001D00086E990E00197F1F74D990FC080E091E03A
:1001E00027D380916A0190916B01019690936B01E6
:1001F00080936A0186E380939D015B9844985A98A6
:100200004CC04E994AC0449A5A9A86E990E00197A8
:10021000F1F74E9910C080E091E00AD380916A0115
:1002200090916B01019690936B0180936A0187E333
:1002300080939D0132C05B9A449886E990E00197D3
:10024000F1F74E9910C080E091E0F2D280916A01FE
:1002500090916B01019690936B0180936A0188E302
:1002600080939D011AC0449A5A9886E990E00197BC
:10027000F1F74E990FC080E091E0DAD280916A01E7
:1002800090916B01019690936B0180936A0189E3D1
:1002900080939D015B9844985A984F9950C0449A16
:1002A0005A9A86E990E00197F1F74F9916C080E0DD
:1002B00091E0BED280916A0190916B01019690937A
:1002C0006B0180936A018AE280939D0182E090E055
:1002D00090936F0180936E0132C05B9A44988AEFCD
:1002E00090E00197F1F74F9910C080E091E0A0D223
:1002F00080916A0190916B01019690936B018093BC
:100300006A0180E380939D011AC0449A5A9886E955
:1003100090E00197F1F74F990FC080E091E088D20B
:1003200080916A0190916B01019690936B0180938B
:100330006A0183E280939D015B9844985A9886E90C
:1003400090E00197F1F780919D01803239F0E091C2
:100350006A01F0916B01E156FE4F808380916A0142
:1003600090916B010497ECF04ED28091A0018093A4
:1003700096018091A101809397018091A2018093C1
:1003800098018091A3018093990180939D0181E060
:1003900090E090936D0180936C0110926B0110922C
:1003A0006A01FF91EF91BF91AF919F918F917F91E2
:1003B0006F915F914F913F912F910F900FBE0F90D2
:1003C0001F9018951F920F920FB60F9211242F9322
:1003D0003F934F935F936F937F938F939F93AF93CD
:1003E000BF93EF93FF932091C60020939C018091CF
:1003F000680190916901059779F421110DC000D22F
:1004000082E091E015D22FEF89E698E121508040FB
:100410009040E1F700C00000F3D180919C0181334E
:1004200069F4EED187E091E003D22FEF89E698E1FD
:10043000215080409040E1F700C0000080919C0175
:10044000803369F4DDD186E191E0F2D12FEF89E6C6
:1004500098E1215080409040E1F700C00000809179
:1004600068019091690101968C30910529F0909373
:100470006901809368010FC01092690110926801B0
:1004800045982FEF89E698E1215080409040E1F7B0
:1004900000C00000459AFF91EF91BF91AF919F91ED
:1004A0008F917F916F915F914F913F912F910F901D
:1004B0000FBE0F901F901895F89440D2789408952D
:1004C00085E590E0F9DF8AEA90E0F6DF81E090E0F0
:1004D000F3DF80E090E0F0DF81E090E0EDDF80E0AE
:1004E00090E0EADF80E090E0E7DF80E090E0E4DFAA
:1004F00081E090E0E1DF80E090E0DEDF82E090E00C
:10050000DBDF81E090E0D8DF089585E590E0D4DF7F
:100510008AEA90E0D1DF81E090E0CEDF80E090E0F9
:10052000CBDF81E090E0C8DF80E090E0C5DF80E0D5
:1005300090E0C2DF80E090E0BFDF82E190E0BCDFCE
:1005400080E090E0B9DF83E190E0B6DF81E090E009
:10055000B3DF089588E284B98FE787B98EE08AB95E
:10056000459A80EF8BB9E8E6F0E0908194E09093B3
:100570009B019083EDE6F0E0908180939B01808366
:1005800078948CE064D183E390E0BDD12FEF89E6CD
:1005900098E1215080409040E1F700C0000090DFDA
:1005A0002FEF89E698E1215080409040E1F700C0AC
:1005B0000000ABDF2FEF89E698E1215080409040AA
:1005C000E1F700C000002FE788E391E02150804070
:1005D0009040E1F700C00000C3E0D0E00F2EF5E04E
:1005E000AF2EB12CF02D6894EE24E2F8F12C01E04E
:1005F00010E06894CC24C1F8D12C809170019091C6
:1006000071018230910509F464C034F4009769F0F7
:100610008130910539F1F5CF8330910509F46DC032
:100620008530910509F48DC0ECCFEAD08FE191E0DF
:10063000FFD080916C0190916D01019751F025E8F8
:100640002A95F1F7000080916C0190916D0101975E
:10065000B1F710926D0110926C011093710100932B
:100660007001CBCFA70164E370E086E991E07BD114
:10067000892B29F4D0927101C0927001BECFC0D0F5
:100680008BE291E0D5D08FEF98E02DE38150904040
:100690002040E1F700C00000B3D087E391E0C8D06C
:1006A00080916C0190916D01019751F085E88A95D8
:1006B000F1F7000080916C0190916D010197B1F705
:1006C00010926D0110926C011093710100937001F2
:1006D00094CF96D082E491E0ABD045989FEF28E08C
:1006E0008DE3915020408040E1F700C00000D0939E
:1006F0007101C0937001459A80CF82D081E591E06D
:1007000097D09FEF28E08DE3915020408040E1F7A3
:1007100000C0000080916E0190916F01009729F454
:10072000D0937101C093700168CF019729F4F092C2
:100730007101E092700161CFB0927101A0927001DD
:100740005CCF5ED08DE591E073D09FEF23ED80E329
:10075000915020408040E1F700C0000010926F01EE
:1007600010926E01109271011092700146CF2B9A77
:1007700000002B980895CF93DF93D82F662311F0B4
:100780002D9A01C02D982C9887B18F6087B9C8B178
:10079000C07F8D2F82958F708C2B88B9E8DFDF703A
:1007A000DC2BD8B9E4DFCF60C8B9DF91CF910895D1
:1007B000882311F02D9A01C02D982C9A87B1807F43
:1007C00087B92B9A000096B12B9800002B9A000055
:1007D00086B19295907F8F702B98892B089580E039
:1007E000E7DF8823E4F300C000C080E0E1DF089584
:1007F000CF93C82FF4DF60E08C2FBDDFCF91089539
:1008000081E0F6DF089582E0F3DF0895CF93C82FEB
:10081000E6DFCA3041F4803410F480E401C080E0A7
:100820008058E6DF03C061E08C2FA5DFCF910895EB
:10083000CF93DF93EC012196FC018081882321F086
:10084000E5DF89918111FCCFDF91CF910895CF939E
:10085000C82F87B18F6087B9259A249A239A8FE988
:100860009FE00197F1F700C00000419A409A7FDFB6
:1008700081EE94E00197F1F700C0000078DF95E188
:100880009A95F1F7000073DF85E18A95F1F7000092
:1008900040986DDF95E19A95F1F7000088E2A8DFB6
:1008A00088E0A6DFADDF86E0A3DF8C2FA1DFCF914C
:1008B00008951F920F920FB60F9211248F939F935A
:1008C000EF93FF939091750180917401981769F0EF
:1008D000E0917401EF5FEF71E0937401F0E0EA588A
:1008E000FE4F80818093C60005C0E1ECF0E080817E
:1008F0008F7D8083FF91EF919F918F910F900FBE1D
:100900000F901F901895109275011092740110921B
:10091000730110927201992324F422E02093C00005
:100920009F779093C5008093C40088E98093C100AD
:10093000E2ECF0E08081866080830895209175016B
:100940002F5F2F71909174012917E1F3E22FF0E0EE
:10095000EA58FE4F808320937501E1ECF0E080813E
:10096000806280830895FB01DC014150504030F0EB
:100970008D910590801919F40020B9F7881B990B07
:060980000895F894FFCF7A
:100986002A007465737400726573706F6E736520E8
:100996006572726F720061636B20676F6F640045EA
:1009A6006E7465722050494E3A200050696E206977
:1009B6006E76616C696400456E7465722050494EAE
:1009C6003A00416363657373204772616E746564B0
:1009D600005363616E2046696E67657200557365E4
:0809E6007220657869740000BD
:00000001FF
