:100000001BC035C034C033C032C032C030C02FC076
:100010002EC02DC02CC02BC02AC029C028C027C08C
:1000200026C025C0C6C14AC322C021C020C01FC0EF
:100030001EC01DC03839383911241FBECFEFD4E09F
:10004000DEBFCDBF11E0A0E0B1E0E0E3F7E002C029
:1000500005900D92A034B107D9F721E0A0E4B1E0FA
:1000600001C01D92A138B207E1F7C4D15FC3C8CF68
:100070001F920F920FB60F9211242F933F934F931D
:100080005F936F937F938F939F93AF93BF93EF9300
:10009000FF938BB1897F80936F018BB988B1897E83
:1000A00080936F0188B92FEF80E792E02150804064
:1000B0009040E1F700C00000809146019091470117
:1000C000029708F065C1459A4C994BC0449A5A9AD8
:1000D00086E990E00197F1F74C9910C080E091E03B
:1000E000ACD28091400190914101019690934101E1
:1000F0008093400181E380937B01CCC05B9A44985C
:1001000086E990E00197F1F74C9910C080E091E00A
:1001100094D28091400190914101019690934101C8
:100120008093400182E380937B01B4C0449A5A9843
:1001300086E990E00197F1F74C990FC080E091E0DB
:100140007CD28091400190914101019690934101B0
:100150008093400183E380937B015B9845985A9894
:1001600099C04D994BC0449A5A9A84E690E0019701
:10017000F1F74D9910C080E091E05FD2809140018D
:10018000909141010196909341018093400184E355
:1001900080937B017FC05B9A449886E990E0019749
:1001A000F1F74D9910C080E091E047D28091400175
:1001B000909141010196909341018093400185E324
:1001C00080937B0167C0449A5A9886E990E0019732
:1001D000F1F74D990FC080E091E02FD2809140015E
:1001E000909141010196909341018093400186E3F3
:1001F00080937B015B9844985A984CC04E994AC0B2
:10020000449A5A9A86E990E00197F1F74E9910C006
:1002100080E091E012D280914001909141010196DD
:10022000909341018093400187E380937B0132C02A
:100230005B9A449886E990E00197F1F74E9910C0D7
:1002400080E091E0FAD180914001909141010196C6
:10025000909341018093400188E380937B011AC011
:10026000449A5A9886E990E00197F1F74E990FC0A9
:1002700080E091E0E2D180914001909141010196AE
:10028000909341018093400189E380937B015B98C7
:1002900044985A984F994AC0449A5A9A86E990E0ED
:1002A0000197F1F74F9910C080E091E0C6D180919D
:1002B000400190914101019690934101809340014A
:1002C0008AE280937B0132C05B9A44988AEF90E087
:1002D0000197F1F74F9910C080E091E0AED1809185
:1002E000400190914101019690934101809340011A
:1002F00080E380937B011AC0449A5A9886E990E083
:100300000197F1F74F990FC080E091E096D180916D
:1003100040019091410101969093410180934001E9
:1003200083E280937B015B9844985A9886E990E039
:100330000197F1F780917B01803239F0E091400123
:10034000F0914101E358FE4F8083809140019091EC
:1003500041010497ECF05CD180917E0180936A01A9
:1003600080917F0180936B018091800180936C016B
:100370008091810180936D0180937B0181E090E009
:1003800090934301809342011092410110924001E9
:10039000FF91EF91BF91AF919F918F917F916F915D
:1003A0005F914F913F912F910F900FBE0F901F9033
:1003B00018951F920F920FB60F9211248F939F934F
:1003C0008091460190914701049709F445989F91C7
:1003D0008F910F900FBE0F901F9018951092C5002F
:1003E0008FEF8093C40088E18093C1008EE08093FA
:1003F000C200089588E284B98FE787B98EE08AB990
:10040000459AC0EFCBB9EADFE8E6F0E0808184E00E
:1004100080937A018083EDE6F0E08081C0937A01D9
:10042000C08378948CE018D101E010E06894EE2449
:10043000E1F8F12CC3E0D0E08091460190914701B2
:100440008130910551F11CF4009751F0F9CF8230C1
:10045000910509F45AC08330910509F46EC0F0CFBC
:10046000D4D082E091E0E9D08091420190914301A3
:10047000019751F025E82A95F1F70000809142019B
:10048000909143010197B1F71092430110924201FC
:100490001093470100934601CFCF44E050E064E35E
:1004A00070E08AE691E034D1892B29F4F09247017B
:1004B000E0924601C1CFA9D08EE091E0BED08FEF8F
:1004C00098E02DE3815090402040E1F700C000000B
:1004D0009CD08AE191E0B1D080914201909143019A
:1004E000019751F085E88A95F1F70000809142016B
:1004F000909143010197B1F710924301109242018C
:10050000109347010093460197CF7FD085E291E099
:1005100094D045989FEF29E688E191502040804093
:10052000E1F700C000001092450110924401D09301
:100530004701C0934601459A7FCF67D084E391E09D
:100540007CD09FEF28E08DE3915020408040E1F780
:1005500000C000008091440190914501892B29F44D
:10056000D0934701C093460167CF84E090E0909319
:1005700047018093460160CF2B9A00002B98089585
:10058000CF93DF93D82F662311F02D9A01C02D98B9
:100590002C9887B18F6087B9C8B1C07F8D2F8295A5
:1005A0008F708C2B88B9E8DFDF70DC2BD8B9E4DFE3
:1005B000CF60C8B9DF91CF910895882311F02D9AAB
:1005C00001C02D982C9A87B1807F87B92B9A0000A3
:1005D00096B12B9800002B9A000086B19295907FDF
:1005E0008F702B98892B089580E0E7DF8823E4F350
:1005F00000C000C080E0E1DF0895CF93C82FF4DF92
:1006000060E08C2FBDDFCF91089581E0F6DF089583
:1006100082E0F3DF0895CF93C82FE6DFCA3041F4BC
:10062000803410F480E401C080E08058E6DF03C02D
:1006300061E08C2FA5DFCF910895CF93DF93EC017C
:100640002196FC018081882321F0E5DF89918111C9
:10065000FCCFDF91CF910895CF93C82F87B18F60E2
:1006600087B9259A249A239A8FE99FE00197F1F799
:1006700000C00000419A409A7FDF81EE94E001972C
:10068000F1F700C0000078DF95E19A95F1F70000DE
:1006900073DF85E18A95F1F7000040986DDF95E101
:1006A0009A95F1F7000088E2A8DF88E0A6DFADDFC9
:1006B00086E0A3DF8C2FA1DFCF9108951F920F92C8
:1006C0000FB60F9211248F939F93EF93FF93909106
:1006D000490180914801981769F0E0914801EF5F66
:1006E000EF71E0934801F0E0E65BFE4F808180937C
:1006F000C60005C0E1ECF0E080818F7D8083FF9132
:10070000EF919F918F910F900FBE0F901F901895B2
:10071000FB01DC014150504030F08D910590801973
:1007200019F40020B9F7881B990B0895F894FFCFAE
:100730002A00456E7465722050494E3A2000506977
:100740006E20696E76616C696400456E7465722016
:1007500050494E3A00416363657373204772616E7E
:10076000746564005363616E2046696E676572004C
:00000001FF
