S014000046696E616C50726F6A6563742E737265634F
S11300001BC035C034C033C032C032C030C02FC072
S11300102EC02DC02CC02BC02AC029C028C027C088
S113002026C025C0CFC112C522C021C020C01FC018
S11300301EC01DC03839383911241FBECFEFD4E09B
S1130040DEBFCDBF11E0A0E0B1E0E0E2FBE002C022
S113005005900D92A437B107D9F721E0A4E7B1E0E8
S113006001C01D92A53BB207E1F732D357C5C8CFF3
S11300701F920F920FB60F9211242F933F934F9319
S11300805F936F937F938F939F93AF93BF93EF93FC
S1130090FF938BB1897F8093AC018BB988B1897E42
S11300A08093AC0188B92FEF80E792E02150804023
S11300B09040E1F700C0000080918201909183019B
S11300C08230910518F0039709F06BC1459A4C9959
S11300D04BC0449A5A9A86E990E00197F1F74C99FB
S11300E010C080E091E071D480917A0190917B01FD
S11300F0019690937B0180937A0181E38093AF0111
S1130100CCC05B9A449886E990E00197F1F74C994A
S113011010C080E091E059D480917A0190917B01E4
S1130120019690937B0180937A0182E38093AF01DF
S1130130B4C0449A5A9886E990E00197F1F74C9933
S11301400FC080E091E041D480917A0190917B01CD
S1130150019690937B0180937A0183E38093AF01AE
S11301605B9845985A9899C04D994BC0449A5A9AAD
S113017084E690E00197F1F74D9910C080E091E09A
S113018024D480917A0190917B01019690937B0114
S113019080937A0184E38093AF017FC05B9A449893
S11301A086E990E00197F1F74D9910C080E091E065
S11301B00CD480917A0190917B01019690937B01FC
S11301C080937A0185E38093AF0167C0449A5A987B
S11301D086E990E00197F1F74D990FC080E091E036
S11301E0F4D380917A0190917B01019690937B01E5
S11301F080937A0186E38093AF015B9844985A9880
S11302004CC04E994AC0449A5A9A86E990E00197A4
S1130210F1F74E9910C080E091E0D7D380917A0134
S113022090917B01019690937B0180937A0187E3FF
S11302308093AF0132C05B9A449886E990E00197BD
S1130240F1F74E9910C080E091E0BFD380917A011C
S113025090917B01019690937B0180937A0188E3CE
S11302608093AF011AC0449A5A9886E990E00197A6
S1130270F1F74E990FC080E091E0A7D380917A0105
S113028090917B01019690937B0180937A0189E39D
S11302908093AF015B9844985A984F9950C0449A00
S11302A05A9A86E990E00197F1F74F9916C080E0D9
S11302B091E08BD380917A0190917B010196909388
S11302C07B0180937A018AE28093AF0182E090E01F
S11302D0909381018093800132C05B9A44988AEFA5
S11302E090E00197F1F74F9910C080E091E06DD351
S11302F080917A0190917B01019690937B01809388
S11303007A0180E38093AF011AC0449A5A9886E92F
S113031090E00197F1F74F990FC080E091E055D339
S113032080917A0190917B01019690937B01809357
S11303307A0183E28093AF015B9844985A9886E9E6
S113034090E00197F1F78091AF01803239F0E091AC
S11303507A01F0917B01EF54FE4F808380917A0102
S113036090917B010497ECF01BD38091B2018093B0
S1130370A8018091B3018093A9018091B401809375
S1130380AA018091B5018093AB018093AF0181E014
S113039090E090937F0180937E0110927B011092F4
S11303A07A01FF91EF91BF91AF919F918F917F91CE
S11303B06F915F914F913F912F910F900FBE0F90CE
S11303C01F9018951F920F920FB60F9211242F931E
S11303D03F934F935F936F937F938F939F93AF93C9
S11303E0BF93EF93FF932091C6002093AE018091B9
S11303F0820190918301039709F054C0203309F4DA
S113040051C0222381F08091780190917901892B48
S113041071F4822F90E090937701809376012F5F9F
S11304202093AE0104C0109277011092760180915E
S113043078019091790101969093790180937801E4
S1130440ACD282E091E0C1D22FEF89E698E121504D
S113045080409040E1F700C000009FD2809182016B
S1130460909183010397F1F48091AE0181111AC038
S113047080917C0190917D01892BA1F481E090E031
S1130480909381018093800188D287E091E09DD28E
S11304902FEF89E698E1215080409040E1F700C0B9
S11304A000007BD280917C0190917D010196909314
S11304B07D0180937C0171D28091AE01813399F4E6
S11304C06CD284E191E081D22FEF89E698E121504A
S11304D080409040E1F700C0000082E090E09093FB
S11304E08101809380018091AE018033B1F455D2B3
S11304F083E291E06AD22FEF89E698E121508040AF
S11305009040E1F700C0000080917801909179015A
S113051001969093790180937801FF91EF91BF91B7
S1130520AF919F918F917F916F915F914F913F9187
S11305302F910F900FBE0F901F901895F894CBD267
S11305407894089585E590E0F9DF8AEA90E0F6DF93
S113055081E090E0F3DF80E090E0F0DF81E090E084
S1130560EDDF80E090E0EADF80E090E0E7DF80E02C
S113057090E0E4DF81E090E0E1DF80E090E0DEDF26
S113058082E090E0DBDF81E090E0D8DF089585E54C
S113059090E0D4DF8AEA90E0D1DF81E090E0CEDF22
S11305A080E090E0CBDF81E090E0C8DF80E090E085
S11305B0C5DF80E090E0C2DF80E090E0BFDF82E151
S11305C090E0BCDF80E090E0B9DF83E190E0B6DF4B
S11305D081E090E0B3DF089585E590E0AFDF8AEA3B
S11305E090E0ACDF81E090E0A9DF80E090E0A6DF5E
S11305F081E090E0A3DF80E090E0A0DF80E090E085
S11306009DDF80E090E09ADF80E290E097DF80E079
S113061090E094DF81E290E091DF81E090E08EDF72
S1130620089585E590E08ADF8AEA90E087DF81E03B
S113063090E084DF80E090E081DF81E090E07EDF85
S113064080E090E07BDF80E090E078DF80E090E085
S113065075DF86E290E072DF80E090E06FDF86E293
S113066090E06CDF81E090E069DF0895809176018D
S1130670909177014696909375018093740185E576
S113068090E05CDF8AEA90E059DF81E090E056DF99
S113069080E090E053DF80917601909177014EDF06
S11306A080E090E04BDF80E090E048DF80E090E085
S11306B045DF82E290E042DF80E090E03FDF80911E
S11306C07401909175013ADF81E090E037DF08957D
S11306D088E284B98FE787B98EE08AB9459A80EFBA
S11306E08BB9E8E6F0E0908194E09093AD019083BB
S11306F0EDE6F0E090818093AD01808378948CE006
S113070073D183E390E0CCD12FEF84E39CE02150BC
S113071080409040E1F700C0000014DF2FEF84E335
S11307209CE0215080409040E1F700C000002FDFA2
S11307302FEF84E39CE0215080409040E1F700C01B
S113074000002FE788E391E0215080409040E1F7DA
S113075000C00000C3E0D0E00F2EF5E0AF2EB12CB6
S1130760F02D6894EE24E2F8F12C01E010E0689496
S1130770CC24C1F8D12C80918201909183018230E4
S1130780910509F466C034F4009779F0813091053D
S113079049F1F5CF8430910509F49EC00CF477C07B
S11307A08530910509F49AC0EACFF7D08CE291E044
S11307B00CD180917E0190917F01019751F025E841
S11307C02A95F1F7000080917E0190917F010197B5
S11307D0B1F710927F0110927E0110938301009370
S11307E08201C9CFA70164E370E088EA91E088D16F
S11307F0892B29F4D0928301C0928201BCCFCDD041
S113080088E391E0E2D08FEF98E02DE381509040AF
S11308102040E1F700C00000C0D084E491E0D5D0CE
S113082080917E0190917F01019751F085E88A952E
S1130830F1F7000080917E0190917F010197B1F75B
S113084010927F0110927E01109383010093820124
S113085092CFA3D08FE491E0B8D045989FEF28E0E1
S11308608DE3915020408040E1F700C00000D09318
S11308708301C0938201459AAFDE9FEF20E782E0B7
S1130880915020408040E1F700C0000074CFC9DEE1
S113089084D08EE591E099D09FEF28E08DE39150CC
S11308A020408040E1F700C00000809180019091D9
S11308B08101009729F4D0938301C09382015BCF17
S11308C0019729F4F0928301E092820154CFB0920F
S11308D08301A09282014FCFC9DE4DCF5ED08AE65C
S11308E091E073D09FEF23ED80E39150204080404E
S11308F0E1F700C000001092810110928001109273
S113090083011092820137CF2B9A00002B9808950F
S1130910CF93DF93D82F662311F02D9A01C02D9821
S11309202C9887B18F6087B9C8B1C07F8D2F82950D
S11309308F708C2B88B9E8DFDF70DC2BD8B9E4DF4B
S1130940CF60C8B9DF91CF910895882311F02D9A13
S113095001C02D982C9A87B1807F87B92B9A00000B
S113096096B12B9800002B9A000086B19295907F47
S11309708F702B98892B089580E0E7DF8823E4F3B8
S113098000C000C080E0E1DF0895CF93C82FF4DFFA
S113099060E08C2FBDDFCF91089581E0F6DF0895EC
S11309A082E0F3DF0895CF93C82FE6DFCA3041F425
S11309B0803410F480E401C080E08058E6DF03C096
S11309C061E08C2FA5DFCF910895CF93DF93EC01E5
S11309D02196FC018081882321F0E5DF8991811132
S11309E0FCCFDF91CF910895CF93C82F87B18F604B
S11309F087B9259A249A239A8FE99FE00197F1F702
S1130A0000C00000419A409A7FDF81EE94E0019794
S1130A10F1F700C0000078DF95E19A95F1F7000046
S1130A2073DF85E18A95F1F7000040986DDF95E169
S1130A309A95F1F7000088E2A8DF88E0A6DFADDF31
S1130A4086E0A3DF8C2FA1DFCF9108951F920F9230
S1130A500FB60F9211248F939F93EF93FF9390916E
S1130A60870180918601981769F0E0918601EF5F14
S1130A70EF71E0938601F0E0E857FE4F80818093A8
S1130A80C60005C0E1ECF0E080818F7D8083FF919A
S1130A90EF919F918F910F900FBE0F901F9018951B
S1130AA010928701109286011092850110928401A0
S1130AB0992324F422E02093C0009F779093C500EB
S1130AC08093C40088E98093C100E2ECF0E0808167
S1130AD0866080830895209187012F5F2F71909104
S1130AE086012917E1F3E22FF0E0E857FE4F8083F7
S1130AF020938701E1ECF0E0808180628083089597
S1130B00FB01DC014150504030F08D91059080197B
S1130B1019F40020B9F7881B990B0895F894FFCFB6
S1130B202A00746573740066696E6765722070725A
S1130B3065737300726573706F6E7365206572728E
S1130B406F720061636B20676F6F6400456E74653C
S1130B50722050494E3A200050696E20696E7661C9
S1130B606C696400456E7465722050494E3A0041C8
S1130B706363657373204772616E746564005363C5
S1130B80616E2046696E67657200557365722065F3
S1070B907869740008
S9030000FC
