:1000000022C03CC03BC03AC039C039C037C036C03E
:1000100035C034C033C032C031C030C02FC02EC054
:100020002DC02CC0D6C1FDC829C028C027C026C0FD
:1000300025C024C0BAC6D6C616C729C745C718C822
:100040002DC83839383911241FBECFEFD4E0DEBFB8
:10005000CDBF11E0A0E0B1E0E6EFF2E102C0059013
:100060000D92A439B107D9F721E0A4E9B1E001C0AC
:100070001D92A33DB207E1F73DD63BC9C1CF1F9208
:100080000F920FB60F9211242F933F934F935F93CC
:100090006F937F938F939F93AF93BF93EF93FF9350
:1000A0008BB1897F8093C9018BB988B1897E809398
:1000B000C90188B92FEF80E792E02150804090403D
:1000C000E1F700C0000080919E0190919F01823075
:1000D000910518F0039709F06BC1459A4C994BC0F4
:1000E000449A5A9A86E990E00197F1F74C9910C02A
:1000F00080E091E055D88091980190919901019606
:10010000909399018093980181E38093CC01CCC0B6
:100110005B9A449886E990E00197F1F74C9910C0FA
:1001200080E091E03DD880919801909199010196ED
:10013000909399018093980182E38093CC01B4C09D
:10014000449A5A9886E990E00197F1F74C990FC0CC
:1001500080E091E025D880919801909199010196D5
:10016000909399018093980183E38093CC015B98ED
:1001700045985A9899C04D994BC0449A5A9A84E62A
:1001800090E00197F1F74D9910C080E091E008D818
:100190008091980190919901019690939901809393
:1001A000980184E38093CC017FC05B9A449886E9F0
:1001B00090E00197F1F74D9910C080E091E0F0D701
:1001C0008091980190919901019690939901809363
:1001D000980185E38093CC0167C0449A5A9886E9D8
:1001E00090E00197F1F74D990FC080E091E0D8D7EA
:1001F0008091980190919901019690939901809333
:10020000980186E38093CC015B9844985A984CC03F
:100210004E994AC0449A5A9A86E990E00197F1F7BC
:100220004E9910C080E091E0BBD7809198019091E9
:1002300099010196909399018093980187E38093A7
:10024000CC0132C05B9A449886E990E00197F1F7BF
:100250004E9910C080E091E0A3D7809198019091D1
:1002600099010196909399018093980188E3809376
:10027000CC011AC0449A5A9886E990E00197F1F7A8
:100280004E990FC080E091E08BD7809198019091BA
:1002900099010196909399018093980189E3809345
:1002A000CC015B9844985A984F9950C0449A5A9AF6
:1002B00086E990E00197F1F74F9916C080E091E050
:1002C0006FD780919801909199010196909399012F
:1002D000809398018AE28093CC0182E090E0909331
:1002E0009D0180939C0132C05B9A44988AEF90E014
:1002F0000197F1F74F9910C080E091E051D78091BC
:100300009801909199010196909399018093980199
:1003100080E38093CC011AC0449A5A9886E990E011
:100320000197F1F74F990FC080E091E039D78091A4
:100330009801909199010196909399018093980169
:1003400083E28093CC015B9844985A9886E990E0C8
:100350000197F1F78091CC01803239F0E09198015A
:10036000F0919901E153FE4F808380919801909123
:1003700099010497ECF0FFD68091D0018093C501DC
:100380008091D1018093C6018091D2018093C701F1
:100390008091D3018093C8018093CC0181E090E0EB
:1003A00090939B0180939A01109299011092980169
:1003B000FF91EF91BF91AF919F918F917F916F913D
:1003C0005F914F913F912F910F900FBE0F901F9013
:1003D00018951F920F920FB60F9211242F933F93EF
:1003E0004F938F939F934091C6004093CB01809190
:1003F0009E0190919F018130910549F420919601D1
:10040000309197012430310511F44093C4012091BB
:10041000CB01213331F423E030E030939D01209370
:100420009C01019749F48091960190919701019662
:1004300090939701809396018FE19EE40197F1F7E5
:1004400000C000009F918F914F913F912F910F908D
:100450000FBE0F901F901895F89428D778940895A0
:1004600085E590E0F9DF8AEA90E0F6DF81E090E050
:10047000F3DF80E090E0F0DF81E090E0EDDF80E00E
:1004800090E0EADF80E090E0E7DF80E090E0E4DF0A
:1004900081E090E0E1DF80E090E0DEDF82E090E06C
:1004A000DBDF81E090E0D8DF089585E590E0D4DFE0
:1004B0008AEA90E0D1DF81E090E0CEDF80E090E05A
:1004C000CBDF81E090E0C8DF80E090E0C5DF80E036
:1004D00090E0C2DF80E090E0BFDF82E190E0BCDF2F
:1004E00080E090E0B9DF83E190E0B6DF81E090E06A
:1004F000B3DF089585E590E0AFDF8AEA90E0ACDFF6
:1005000081E090E0A9DF80E090E0A6DF81E090E06C
:10051000A3DF80E090E0A0DF80E090E09DDF80E05E
:1005200090E09ADF80E290E097DF80E090E094DF57
:1005300081E290E091DF81E090E08EDF089585E533
:1005400090E08ADF8AEA90E087DF81E090E084DF54
:1005500080E090E081DF81E090E07EDF80E090E06D
:100560007BDF80E090E078DF80E090E075DF86E27E
:1005700090E072DF80E090E06FDF87E290E06CDF78
:1005800081E090E069DF0895809194019091950158
:10059000009729F585E590E05FDF8AEA90E05CDF6F
:1005A00081E090E059DF80E090E056DF80E090E06D
:1005B00053DF80E090E050DF80E090E04DDF80E0AE
:1005C00090E04ADF82E290E047DF80E090E044DFA5
:1005D00082E290E041DF81E090E03EDF08958130EB
:1005E000910529F585E590E037DF8AEA90E034DF70
:1005F00081E090E031DF80E090E02EDF81E090E06C
:100600002BDF80E090E028DF80E090E025DF80E0D5
:1006100090E022DF82E290E01FDF80E090E01CDFCC
:1006200083E290E019DF81E090E016DF08958230E8
:10063000910529F585E590E00FDF8AEA90E00CDF6F
:1006400081E090E009DF80E090E006DF82E090E06A
:1006500003DF80E090E000DF80E090E0FDDE80E0FE
:1006600090E0FADE82E290E0F7DE80E090E0F4DEF7
:1006700084E290E0F1DE81E090E0EEDE08958330E8
:10068000910529F585E590E0E7DE8AEA90E0E4DE71
:1006900081E090E0E1DE80E090E0DEDE83E090E06B
:1006A000DBDE80E090E0D8DE80E090E0D5DE80E028
:1006B00090E0D2DE82E290E0CFDE80E090E0CCDE1F
:1006C00085E290E0C9DE81E090E0C6DE08958430E6
:1006D000910529F585E590E0BFDE8AEA90E0BCDE71
:1006E00081E090E0B9DE80E090E0B6DE84E090E06A
:1006F000B3DE80E090E0B0DE80E090E0ADDE80E050
:1007000090E0AADE82E290E0A7DE80E090E0A4DE46
:1007100086E290E0A1DE81E090E09EDE08958530E3
:10072000910529F585E590E097DE8AEA90E094DE70
:1007300081E090E091DE80E090E08EDE85E090E068
:100740008BDE80E090E088DE80E090E085DE80E077
:1007500090E082DE82E290E07FDE80E090E07CDE6E
:1007600087E290E079DE81E090E076DE08958630E1
:10077000910529F585E590E06FDE8AEA90E06CDE70
:1007800081E090E069DE80E090E066DE86E090E067
:1007900063DE80E090E060DE80E090E05DDE80E09F
:1007A00090E05ADE82E290E057DE80E090E054DE96
:1007B00088E290E051DE81E090E04EDE08958730DF
:1007C000910529F585E590E047DE8AEA90E044DE70
:1007D00081E090E041DE80E090E03EDE87E090E066
:1007E0003BDE80E090E038DE80E090E035DE80E0C7
:1007F00090E032DE82E290E02FDE80E090E02CDEBE
:1008000089E290E029DE81E090E026DE08958830DC
:10081000910529F585E590E01FDE8AEA90E01CDE6F
:1008200081E090E019DE80E090E016DE88E090E064
:1008300013DE80E090E010DE80E090E00DDE80E0EE
:1008400090E00ADE82E290E007DE80E090E004DEE5
:1008500080E390E001DE81E090E0FEDD08958930E4
:10086000910529F585E590E0F7DD8AEA90E0F4DD71
:1008700081E090E0F1DD80E090E0EEDD89E090E065
:10088000EBDD80E090E0E8DD80E090E0E5DD80E019
:1008900090E0E2DD82E290E0DFDD80E090E0DCDD10
:1008A00081E390E0D9DD81E090E0D6DD08958A30E3
:1008B000910529F585E590E0CFDD8AEA90E0CCDD71
:1008C00081E090E0C9DD80E090E0C6DD80E190E06D
:1008D000C3DD80E090E0C0DD80E090E0BDDD80E041
:1008E00090E0BADD82E290E0B7DD80E090E0B4DD38
:1008F00082E390E0B1DD81E090E0AEDD08958B30E1
:10090000910529F585E590E0A7DD8AEA90E0A4DD70
:1009100081E090E0A1DD80E090E09EDD81E190E06B
:100920009BDD80E090E098DD80E090E095DD80E068
:1009300090E092DD82E290E08FDD80E090E08CDD5F
:1009400083E390E089DD81E090E086DD08958C30DE
:10095000910529F585E590E07FDD8AEA90E07CDD70
:1009600081E090E079DD80E090E076DD82E190E06A
:1009700073DD80E090E070DD80E090E06DDD80E090
:1009800090E06ADD82E290E067DD80E090E064DD87
:1009900084E390E061DD81E090E05EDD08958D30DC
:1009A000910529F585E590E057DD8AEA90E054DD70
:1009B00081E090E051DD80E090E04EDD83E190E069
:1009C0004BDD80E090E048DD80E090E045DD80E0B8
:1009D00090E042DD82E290E03FDD80E090E03CDDAF
:1009E00085E390E039DD81E090E036DD08958E30DA
:1009F000910529F585E590E02FDD8AEA90E02CDD70
:100A000081E090E029DD80E090E026DD84E190E067
:100A100023DD80E090E020DD80E090E01DDD80E0DF
:100A200090E01ADD82E290E017DD80E090E014DDD6
:100A300086E390E011DD81E090E00EDD08958F30D7
:100A4000910529F585E590E007DD8AEA90E004DD6F
:100A500081E090E001DD80E090E0FEDC85E190E067
:100A6000FBDC80E090E0F8DC80E090E0F5DC80E00A
:100A700090E0F2DC82E290E0EFDC80E090E0ECDC01
:100A800087E390E0E9DC81E090E0E6DC08958031E6
:100A9000910529F585E590E0DFDC8AEA90E0DCDC71
:100AA00081E090E0D9DC80E090E0D6DC86E190E067
:100AB000D3DC80E090E0D0DC80E090E0CDDC80E032
:100AC00090E0CADC82E290E0C7DC80E090E0C4DC29
:100AD00088E390E0C1DC81E090E0BEDC08958131E4
:100AE000910529F585E590E0B7DC8AEA90E0B4DC71
:100AF00081E090E0B1DC80E090E0AEDC85E190E068
:100B0000ABDC80E090E0A8DC80E090E0A5DC80E059
:100B100090E0A2DC82E290E09FDC80E090E09CDC50
:100B200089E390E099DC81E090E096DC08958231E1
:100B3000910529F585E590E08FDC8AEA90E08CDC70
:100B400081E090E089DC80E090E086DC88E190E064
:100B500083DC80E090E080DC80E090E07DDC80E081
:100B600090E07ADC82E290E077DC80E090E074DC78
:100B700080E490E071DC81E090E06EDC08954397C2
:100B800021F585E590E068DC8AEA90E065DC81E0AB
:100B900090E062DC80E090E05FDC89E190E05CDC8A
:100BA00080E090E059DC80E090E056DC80E090E06E
:100BB00053DC82E290E050DC80E090E04DDC81E4A8
:100BC00090E04ADC81E090E047DC089585E590E024
:100BD00043DC8AEA90E040DC81E090E03DDC80E0AC
:100BE00090E03ADC81E090E037DC80E090E034DCBB
:100BF00080E090E031DC80E090E02EDC80E690E068
:100C00002BDC80E090E028DC81E690E025DC81E0D0
:100C100090E022DC089585E590E01EDC8AEA90E011
:100C20001BDC81E090E018DC80E090E015DC80E0E7
:100C300090E012DC80E090E00FDC80E090E00CDCE3
:100C400080E090E009DC83E290E006DC80E090E068
:100C500003DC83E290E000DC81E090E0FDDB0895BE
:100C600085E590E0F9DB8AEA90E0F6DB81E090E050
:100C7000F3DB80E090E0F0DB80E090E0EDDB80E013
:100C800090E0EADB80E090E0E7DB80E090E0E4DB0E
:100C900084E290E0E1DB80E090E0DEDB84E290E063
:100CA000DBDB81E090E0D8DB089585E590E0D4DBE4
:100CB0008AEA90E0D1DB81E090E0CEDB80E090E05A
:100CC000CBDB80E090E0C8DB80E090E0C5DB80E03B
:100CD00090E0C2DB80E090E0BFDB85E290E0BCDB2F
:100CE00080E090E0B9DB85E290E0B6DB81E090E067
:100CF000B3DB089588E284B98FE787B98EE08AB9BB
:100D0000459A80EF8BB9E8E6F0E0908194E090930B
:100D1000CA019083EDE6F0E090818093CA01808360
:100D200078948CE04CD283E390E0A5D22FEF80E75B
:100D300092E0215080409040E1F700C0000090DB3D
:100D40002FEF80E792E0215080409040E1F700C013
:100D50000000ABDB2FEF80E792E021508040904015
:100D6000E1F700C000000F2EF5E0CF2ED12CF02DC2
:100D70000F2EF6E08F2E912CF02DC4E0D0E00F2E38
:100D8000F3E0EF2EF12CF02D01E010E06894AA249E
:100D9000A1F8B12C80919E0190919F01FC018730B8
:100DA0009105E0F7E65EFF4F0994E2D182E091E021
:100DB000F7D180919A0190919B01019751F025E81C
:100DC0002A95F1F7000080919A0190919B0101977B
:100DD000B1F710929B0110929A0110939F0100931A
:100DE0009E01D8CF87DB8FEF90E722E081509040C3
:100DF0002040E1F700C00000AE0162E470E085EC45
:100E000091E069D2892B29F4B0929F01A0929E01B2
:100E1000C1CFAED18EE091E0C3D18FEF98E02DE34A
:100E2000815090402040E1F700C00000A1D18AE14C
:100E300091E0B6D180919A0190919B01019751F078
:100E400085E88A95F1F7000080919A0190919B01C5
:100E50000197B1F710929B0110929A0110939F0194
:100E600000939E0197CF84D185E291E099D1459876
:100E70009FEF28E08DE3915020408040E1F700C0D3
:100E80000000F0929F01E0929E01459A83CF70D1BD
:100E900084E391E085D19FEF28E08DE391502040DD
:100EA0008040E1F700C0000080919C0190919D017D
:100EB000029729F4D0929F01C0929E016BCFD093EC
:100EC0009F01C0939E0166CF80919C0190919D01EE
:100ED000039709F45FCFD0929F01C0929E0154DB2B
:100EE0009FEF24E38CE0915020408040E1F700C068
:100EF00000003ED180E491E053D19FEF24E38CE0E9
:100F0000915020408040E1F700C000005FDE9FEF7D
:100F100028E08DE3915020408040E1F700C00000C0
:100F200027D179DE9FEF24E38CE091502040804070
:100F3000E1F700C000001CD189E491E031D19FEFBE
:100F400029E688E1915020408040E1F700C0000090
:100F5000F6DA9FEF24E38CE0915020408040E1F7E7
:100F600000C0000005D189E591E01AD19FEF24E38C
:100F70008CE0915020408040E1F700C0000026DE68
:100F80009FEF28E08DE3915020408040E1F700C0C2
:100F90000000EED065DE9FEF24E38CE0915020400E
:100FA0008040E1F700C00000E3D089E491E0F8D090
:100FB0009FEF29E688E1915020408040E1F700C092
:100FC0000000BDDA9FEF24E38CE091502040804088
:100FD000E1F700C00000CCD082E691E0E1D09FEFC5
:100FE00024E38CE0915020408040E1F700C00000F5
:100FF000EDDD9FEF28E08DE3915020408040E1F748
:1010000000C00000B5D051DE9FEF24E38CE091508A
:1010100020408040E1F700C00000AAD089E491E0C0
:10102000BFD09FEF29E688E1915020408040E1F752
:1010300000C0000080919C0190919D01039729F0D0
:1010400090929F0180929E01A5CE92D08BE691E076
:10105000A7D09FEF28E08DE3915020408040E1F73A
:1010600000C0000085D0D0929F01C0929E0192CE18
:101070007FD08BE791E094D09FEF23ED80E39150F8
:1010800020408040E1F700C0000010929D011092C6
:101090009C0110929F0110929E017CCE459868D0D1
:1010A00085E891E07DD09FEF21E18AE791502040D3
:1010B0008040E1F700C0000010929D0110929C0159
:1010C00010929F0110929E01459A809194019091F7
:1010D0009501019690939501809394015BCE2B9A94
:1010E00000002B980895CF93DF93D82F662311F03B
:1010F0002D9A01C02D982C9887B18F6087B9C8B1FF
:10110000C07F8D2F82958F708C2B88B9E8DFDF70C0
:10111000DC2BD8B9E4DFCF60C8B9DF91CF91089557
:10112000882311F02D9A01C02D982C9A87B1807FC9
:1011300087B92B9A000096B12B9800002B9A0000DB
:1011400086B19295907F8F702B98892B089580E0BF
:10115000E7DF8823E4F300C000C080E0E1DF08950A
:10116000CF93C82FF4DF60E08C2FBDDFCF910895BF
:1011700081E0F6DF089582E0F3DF0895CF93C82F72
:10118000E6DFCA3041F4803410F480E401C080E02E
:101190008058E6DF03C061E08C2FA5DFCF91089572
:1011A000CF93DF93EC012196FC018081882321F00D
:1011B000E5DF89918111FCCFDF91CF910895CF9325
:1011C000C82F87B18F6087B9259A249A239A8FE90F
:1011D0009FE00197F1F700C00000419A409A7FDF3D
:1011E00081EE94E00197F1F700C0000078DF95E10F
:1011F0009A95F1F7000073DF85E18A95F1F7000019
:1012000040986DDF95E19A95F1F7000088E2A8DF3C
:1012100088E0A6DFADDF86E0A3DF8C2FA1DFCF91D2
:1012200008951F920F920FB60F9211248F939F93E0
:10123000EF93FF939091A3018091A201981769F019
:10124000E091A201EF5FEF71E093A201F0E0EC55B5
:10125000FE4F80818093C60005C0E1ECF0E0808104
:101260008F7D8083FF91EF919F918F910F900FBEA3
:101270000F901F9018951092A3011092A201109246
:10128000A1011092A001992324F422E02093C00030
:101290009F779093C5008093C40088E98093C10034
:1012A000E2ECF0E080818660808308952091A301C4
:1012B0002F5F2F719091A2012917E1F3E22FF0E047
:1012C000EC55FE4F80832093A301E1ECF0E0808198
:1012D000806280830895FB01DC014150504030F072
:1012E0008D910590801919F40020B9F7881B990B8E
:0612F0000895F894FFCF01
:1012F6002A00456E7465722050494E3A20005069A6
:101306006E20696E76616C696400456E7465722044
:1013160050494E3A00416363657373204772616EAC
:1013260074656400456E726F6C6C2075736572002F
:10133600456E726F6C6C20310054616B65206F6670
:10134600662066696E67657200456E726F6C6C200A
:101356003200456E726F6C6C203300426164204629
:10136600696E6765727072696E7400557365722076
:1013760065786974005573657220656E726F6C6C62
:04138600656400009A
:00000001FF
