S014000046696E616C50726F6A6563742E737265634F
S11300001BC035C034C033C032C032C030C02FC072
S11300102EC02DC02CC02BC02AC029C028C027C088
S113002026C025C0C6C199C322C021C020C01FC09C
S11300301EC01DC03839383911241FBECFEFD4E09B
S1130040DEBFCDBF11E0A0E0B1E0EEE2F8E002C017
S113005005900D92A034B107D9F721E0A0E4B1E0F6
S113006001C01D92A338B207E1F714D2DEC3C8CF92
S11300701F920F920FB60F9211242F933F934F9319
S11300805F936F937F938F939F93AF93BF93EF93FC
S1130090FF938BB1897F809370018BB988B1897E7E
S11300A08093700188B92FEF80E792E0215080405F
S11300B09040E1F700C00000809146019091470113
S11300C0029708F065C1459A4C994BC0449A5A9AD4
S11300D086E990E00197F1F74C9910C080E091E037
S11300E0FBD280914001909141010196909341018E
S11300F08093400181E380937D01CCC05B9A449856
S113010086E990E00197F1F74C9910C080E091E006
S1130110E3D2809140019091410101969093410175
S11301208093400182E380937D01B4C0449A5A983D
S113013086E990E00197F1F74C990FC080E091E0D7
S1130140CBD280914001909141010196909341015D
S11301508093400183E380937D015B9845985A988E
S113016099C04D994BC0449A5A9A84E690E00197FD
S1130170F1F74D9910C080E091E0AED2809140013A
S1130180909141010196909341018093400184E351
S113019080937D017FC05B9A449886E990E0019743
S11301A0F1F74D9910C080E091E096D28091400122
S11301B0909141010196909341018093400185E320
S11301C080937D0167C0449A5A9886E990E001972C
S11301D0F1F74D990FC080E091E07ED2809140010B
S11301E0909141010196909341018093400186E3EF
S11301F080937D015B9844985A984CC04E994AC0AC
S1130200449A5A9A86E990E00197F1F74E9910C002
S113021080E091E061D2809140019091410101968A
S1130220909341018093400187E380937D0132C024
S11302305B9A449886E990E00197F1F74E9910C0D3
S113024080E091E049D28091400190914101019672
S1130250909341018093400188E380937D011AC00B
S1130260449A5A9886E990E00197F1F74E990FC0A5
S113027080E091E031D2809140019091410101965A
S1130280909341018093400189E380937D015B98C1
S113029044985A984F994AC0449A5A9A86E990E0E9
S11302A00197F1F74F9910C080E091E015D2809149
S11302B04001909141010196909341018093400146
S11302C08AE280937D0132C05B9A44988AEF90E081
S11302D00197F1F74F9910C080E091E0FDD1809132
S11302E04001909141010196909341018093400116
S11302F080E380937D011AC0449A5A9886E990E07D
S11303000197F1F74F990FC080E091E0E5D180911A
S113031040019091410101969093410180934001E5
S113032083E280937D015B9844985A9886E990E033
S11303300197F1F780917D01803239F0E09140011D
S1130340F0914101E158FE4F8083809140019091EA
S113035041010497ECF0ABD18091800180936C0152
S11303608091810180936D018091820180936E015F
S11303708091830180936F0180937D0181E090E0FF
S113038090934301809342011092410110924001E5
S1130390FF91EF91BF91AF919F918F917F916F9159
S11303A05F914F913F912F910F900FBE0F901F902F
S11303B018951F920F920FB60F9211248F939F934B
S11303C08091C60080937C0145988091460190916C
S11303D04701039709F445989F918F910F900FBEA1
S11303E00F901F901895F894E7ECF0E03197F1F72F
S11303F000C00000F7D17894089585E590E0F3DF1C
S11304008AEA90E0F0DF81E090E0EDDF80E090E0C8
S1130410EADF80E090E0E7DF80E090E0E4DF80E086
S113042090E0E1DF80E090E0DEDF81E090E0DBDF80
S113043080E090E0D8DF81E090E0D5DF81E090E0DB
S1130440D2DF84E690E00197F1F785E590E0CBDF19
S11304508AEA90E0C8DF81E090E0C5DF80E090E0C8
S1130460C2DF80E090E0BFDF80E090E0BCDF80E0AE
S113047090E0B9DF80E090E0B6DF82E190E0B3DFA6
S113048080E090E0B0DF82E190E0ADDF81E090E0D9
S1130490AADF089588E284B98FE787B98EE08AB924
S11304A0459AC0EFCBB983E390E081D1E8E6F0E070
S11304B0808184E080937B018083EDE6F0E080819D
S11304C0C0937B01C08378948CE015D101E010E0E7
S11304D06894EE24E1F8F12CC3E0D0E08091460169
S11304E0909147018130910551F11CF4009751F02E
S11304F0F9CF8230910509F45AC08330910509F48B
S11305006AC0F0CFD1D082E091E0E6D08091420180
S113051090914301019751F025E82A95F1F70000E5
S113052080914201909143010197B1F710924301E8
S1130530109242011093470100934601CFCF44E04B
S113054050E064E370E08CE691E061D1892B29F4FA
S1130550F0924701E0924601C1CFA6D08EE091E02F
S1130560BBD08FEF98E02DE3815090402040E1F71D
S113057000C0000099D08AE191E0AED080914201A0
S113058090914301019751F085E88A95F1F70000B5
S113059080914201909143010197B1F71092430178
S11305A010924201109347010093460197CF7CD0EB
S11305B085E291E091D045989FEF29E688E191503A
S11305C020408040E1F700C00000D0934701C09371
S11305D04601459A83CF11DF67D084E391E07CD054
S11305E09FEF28E08DE3915020408040E1F700C068
S11305F000008091440190914501892B29F4D09306
S11306004701C09346016ACF84E090E0909347018C
S11306108093460163CF2B9A00002B980895CF93C3
S1130620DF93D82F662311F02D9A01C02D982C98B2
S113063087B18F6087B9C8B1C07F8D2F82958F70C5
S11306408C2B88B9E8DFDF70DC2BD8B9E4DFCF600E
S1130650C8B9DF91CF910895882311F02D9A01C074
S11306602D982C9A87B1807F87B92B9A000096B178
S11306702B9800002B9A000086B19295907F8F7082
S11306802B98892B089580E0E7DF8823E4F300C0EA
S113069000C080E0E1DF0895CF93C82FF4DF60E06D
S11306A08C2FBDDFCF91089581E0F6DF089582E0BD
S11306B0F3DF0895CF93C82FE6DFCA3041F48034C6
S11306C010F480E401C080E08058E6DF03C061E0FC
S11306D08C2FA5DFCF910895CF93DF93EC01219662
S11306E0FC018081882321F0E5DF89918111FCCF11
S11306F0DF91CF910895CF93C82F87B18F6087B9C9
S1130700259A249A239A8FE99FE00197F1F700C074
S11307100000419A409A7FDF81EE94E00197F1F75F
S113072000C0000078DF95E19A95F1F7000073DFCF
S113073085E18A95F1F7000040986DDF95E19A957F
S1130740F1F7000088E2A8DF88E0A6DFADDF86E0ED
S1130750A3DF8C2FA1DFCF9108951F920F920FB6C4
S11307600F9211248F939F93EF93FF9390914B01DA
S113077080914A01981769F0E0914A01EF5FEF71A7
S1130780E0934A01F0E0E45BFE4F80818093C60071
S113079005C0E1ECF0E080818F7D8083FF91EF91D3
S11307A09F918F910F900FBE0F901F9018951092EC
S11307B04B0110924A011092490110924801992369
S11307C024F422E02093C0009F779093C500809387
S11307D0C40088E98093C100E2ECF0E080818E607F
S11307E08083089520914B012F5F2F7190914A01CE
S11307F02917E1F3E22FF0E0E45BFE4F80832093BE
S11308004B01E1ECF0E08081806280830895FB017C
S1130810DC014150504030F08D910590801919F45D
S11108200020B9F7881B990B0895F894FFCFB8
S113082E2A00456E7465722050494E3A2000506974
S113083E6E20696E76616C696400456E7465722013
S113084E50494E3A00416363657373204772616E7B
S113085E746564005363616E2046696E6765720049
S9030000FC
