:100000001BC035C034C033C032C032C030C02FC076
:100010002EC02DC02CC02BC02AC029C028C027C08C
:1000200026C025C0C6C1ECC322C021C020C01FC04D
:100030001EC01DC03839383911241FBECFEFD4E09F
:10004000DEBFCDBF11E0A0E0B1E0E4EDF8E002C01A
:1000500005900D92A436B107D9F721E0A4E6B1E0EE
:1000600001C01D92AF39B207E1F766D231C4C8CFE3
:100070001F920F920FB60F9211242F933F934F931D
:100080005F936F937F938F939F93AF93BF93EF9300
:10009000FF938BB1897F809396018BB988B1897E5C
:1000A0008093960188B92FEF80E792E0215080403D
:1000B0009040E1F700C0000080916C0190916D01CB
:1000C000029708F065C1459A4C994BC0449A5A9AD8
:1000D00086E990E00197F1F74C9910C080E091E03B
:1000E0004ED38091660190916701019690936701CC
:1000F0008093660181E380939901CCC05B9A449818
:1001000086E990E00197F1F74C9910C080E091E00A
:1001100036D38091660190916701019690936701B3
:100120008093660182E380939901B4C0449A5A98FF
:1001300086E990E00197F1F74C990FC080E091E0DB
:100140001ED380916601909167010196909367019B
:100150008093660183E3809399015B9845985A9850
:1001600099C04D994BC0449A5A9A84E690E0019701
:10017000F1F74D9910C080E091E001D380916601C4
:10018000909167010196909367018093660184E3E3
:10019000809399017FC05B9A449886E990E001972B
:1001A000F1F74D9910C080E091E0E9D280916601AD
:1001B000909167010196909367018093660185E3B2
:1001C0008093990167C0449A5A9886E990E0019714
:1001D000F1F74D990FC080E091E0D1D28091660196
:1001E000909167010196909367018093660186E381
:1001F000809399015B9844985A984CC04E994AC094
:10020000449A5A9A86E990E00197F1F74E9910C006
:1002100080E091E0B4D280916601909167010196EF
:10022000909367018093660187E38093990132C0C0
:100230005B9A449886E990E00197F1F74E9910C0D7
:1002400080E091E09CD280916601909167010196D7
:10025000909367018093660188E3809399011AC0A7
:10026000449A5A9886E990E00197F1F74E990FC0A9
:1002700080E091E084D280916601909167010196BF
:10028000909367018093660189E3809399015B985D
:1002900044985A984F994AC0449A5A9A86E990E0ED
:1002A0000197F1F74F9910C080E091E068D28091FA
:1002B00066019091670101969093670180936601B2
:1002C0008AE28093990132C05B9A44988AEF90E069
:1002D0000197F1F74F9910C080E091E050D28091E2
:1002E0006601909167010196909367018093660182
:1002F00080E3809399011AC0449A5A9886E990E065
:100300000197F1F74F990FC080E091E038D28091CA
:100310006601909167010196909367018093660151
:1003200083E2809399015B9844985A9886E990E01B
:100330000197F1F780919901803239F0E0916601DF
:10034000F0916701E556FE4F8083809166019091A0
:1003500067010497ECF0FED180919C01809392019B
:1003600080919D018093930180919E0180939401DF
:1003700080919F01809395018093990181E090E0A5
:100380009093690180936801109267011092660151
:10039000FF91EF91BF91AF919F918F917F916F915D
:1003A0005F914F913F912F910F900FBE0F901F9033
:1003B00018951F920F920FB60F9211242F933F930F
:1003C0004F935F936F937F938F939F93AF93BF935D
:1003D000EF93FF9380916C0190916D01039709F069
:1003E00046C02091C60020939801809164019091AD
:1003F0006501089779F4213069F4A9D182E091E090
:10040000BED12FEF89E698E1215080409040E1F77E
:1004100000C000009CD180919801813321F497D1D4
:100420008DE091E0ACD180919801803321F48FD19F
:100430008CE191E0A4D180916401909165010196D5
:100440008C30910529F090936501809364010FC071
:10045000109265011092640145982FEF81E19AE7AF
:10046000215080409040E1F700C00000459AFF9184
:10047000EF91BF91AF919F918F917F916F915F911C
:100480004F913F912F910F900FBE0F901F90189595
:10049000F894EFECF7E03197F1F700C00000F5D1E8
:1004A0007894089585E590E0F3DF8AEA90E0F0DF44
:1004B00081E090E0EDDF80E090E0EADF80E090E036
:1004C000E7DF80E090E0E4DF80E090E0E1DF80E0E3
:1004D00090E0DEDF81E090E0DBDF80E090E0D8DFDD
:1004E00081E090E0D5DF81E090E0D2DF089585E5FE
:1004F00090E0CEDF8AEA90E0CBDF81E090E0C8DFD9
:1005000080E090E0C5DF81E090E0C2DF80E090E035
:10051000BFDF80E090E0BCDF80E090E0B9DF82E107
:1005200090E0B6DF80E090E0B3DF83E190E0B0DF01
:1005300081E090E0ADDF089588E284B98FE787B964
:100540008EE08AB9459AC0EFCBB980E895E282D1B6
:10055000E8E6F0E0808184E0809397018083EDE617
:10056000F0E08081C0939701C08378948CE016D12D
:1005700001E010E06894EE24E1F8F12CC3E0D0E053
:1005800080916C0190916D018130910551F11CF4C5
:10059000009751F0F9CF8230910509F45AC08330A9
:1005A000910509F46CC0F0CFD2D085E291E0E7D09C
:1005B0008091680190916901019751F025E82A9591
:1005C000F1F7000080916801909169010197B1F7FE
:1005D000109269011092680110936D0100936C01F3
:1005E000CFCF44E050E064E370E082E991E062D173
:1005F000892B29F4F0926D01E0926C01C1CFA7D054
:1006000081E391E0BCD08FEF98E02DE381509040E2
:100610002040E1F700C000009AD08DE391E0AFD018
:100620008091680190916901019751F085E88A9560
:10063000F1F7000080916801909169010197B1F78D
:10064000109269011092680110936D0100936C0182
:1006500097CF7DD088E491E092D045989FEF28E035
:100660008DE3915020408040E1F700C00000D0931E
:100670006D01C0936C0116DF3ADF459A81CF67D0D8
:1006800087E591E07CD09FEF28E08DE391502040FA
:100690008040E1F700C0000080916A0190916B01F9
:1006A000892B29F4D0936D01C0936C0169CF84E04C
:1006B00090E090936D0180936C0162CF2B9A0000C3
:1006C0002B980895CF93DF93D82F662311F02D9A9E
:1006D00001C02D982C9887B18F6087B9C8B1C07FB1
:1006E0008D2F82958F708C2B88B9E8DFDF70DC2B23
:1006F000D8B9E4DFCF60C8B9DF91CF9108958823DE
:1007000011F02D9A01C02D982C9A87B1807F87B95E
:100710002B9A000096B12B9800002B9A000086B10E
:100720009295907F8F702B98892B089580E0E7DF5A
:100730008823E4F300C000C080E0E1DF0895CF9398
:10074000C82FF4DF60E08C2FBDDFCF91089581E0EA
:10075000F6DF089582E0F3DF0895CF93C82FE6DF38
:10076000CA3041F4803410F480E401C080E0805845
:10077000E6DF03C061E08C2FA5DFCF910895CF9312
:10078000DF93EC012196FC018081882321F0E5DFD5
:1007900089918111FCCFDF91CF910895CF93C82F1C
:1007A00087B18F6087B9259A249A239A8FE99FE0B1
:1007B0000197F1F700C00000419A409A7FDF81EE77
:1007C00094E00197F1F700C0000078DF95E19A9579
:1007D000F1F7000073DF85E18A95F1F7000040989A
:1007E0006DDF95E19A95F1F7000088E2A8DF88E0D7
:1007F000A6DFADDF86E0A3DF8C2FA1DFCF910895C8
:100800001F920F920FB60F9211248F939F93EF9325
:10081000FF939091710180917001981769F0E091B8
:100820007001EF5FEF71E0937001F0E0EE58FE4F62
:1008300080818093C60005C0E1ECF0E080818F7D6F
:100840008083FF91EF919F918F910F900FBE0F903A
:100850001F901895109271011092700110926F0103
:1008600010926E01992324F422E02093C0009F7718
:100870009093C5008093C40088E98093C100E2ECA6
:10088000F0E08081866080830895209171012F5F60
:100890002F71909170012917E1F3E22FF0E0EE58EB
:1008A000FE4F808320937101E1ECF0E08081806253
:1008B00080830895FB01DC014150504030F08D9160
:1008C0000590801919F40020B9F7881B990B089539
:0408D000F894FFCFCA
:1008D4002A00476F6F6420737475666600726573CF
:1008E400706F6E7365206572726F720061636B2046
:1008F400676F6F6400456E7465722050494E3A20EC
:100904000050696E20696E76616C696400456E748E
:1009140065722050494E3A00416363657373204702
:1009240072616E746564005363616E2046696E671C
:0409340065720000E8
:00000001FF
