:100000001BC035C034C033C032C032C030C02FC076
:100010002EC02DC02CC02BC02AC029C028C027C08C
:1000200026C025C0CFC102C522C021C020C01FC02C
:100030001EC01DC03839383911241FBECFEFD4E09F
:10004000DEBFCDBF11E0A0E0B1E0E0E0FBE002C028
:1000500005900D92A238B107D9F721E0A2E8B1E0EE
:1000600001C01D92A33CB207E1F71ED347C5C8CF1C
:100070001F920F920FB60F9211242F933F934F931D
:100080005F936F937F938F939F93AF93BF93EF9300
:10009000FF938BB1897F8093BA018BB988B1897E38
:1000A0008093BA0188B92FEF80E792E02150804019
:1000B0009040E1F700C00000809190019091910183
:1000C0008230910518F0039709F06BC1459A4C995D
:1000D0004BC0449A5A9A86E990E00197F1F74C99FF
:1000E00010C080E091E061D48091880190918901F5
:1000F0000196909389018093880181E38093BD01EB
:10010000CCC05B9A449886E990E00197F1F74C994E
:1001100010C080E091E049D48091880190918901DC
:100120000196909389018093880182E38093BD01B9
:10013000B4C0449A5A9886E990E00197F1F74C9937
:100140000FC080E091E031D48091880190918901C5
:100150000196909389018093880183E38093BD0188
:100160005B9845985A9899C04D994BC0449A5A9AB1
:1001700084E690E00197F1F74D9910C080E091E09E
:1001800014D48091880190918901019690938901FE
:100190008093880184E38093BD017FC05B9A44987B
:1001A00086E990E00197F1F74D9910C080E091E069
:1001B000FCD38091880190918901019690938901E7
:1001C0008093880185E38093BD0167C0449A5A9863
:1001D00086E990E00197F1F74D990FC080E091E03A
:1001E000E4D38091880190918901019690938901CF
:1001F0008093880186E38093BD015B9844985A9868
:100200004CC04E994AC0449A5A9A86E990E00197A8
:10021000F1F74E9910C080E091E0C7D3809188013A
:10022000909189010196909389018093880187E3D9
:100230008093BD0132C05B9A449886E990E00197B3
:10024000F1F74E9910C080E091E0AFD38091880122
:10025000909189010196909389018093880188E3A8
:100260008093BD011AC0449A5A9886E990E001979C
:10027000F1F74E990FC080E091E097D3809188010B
:10028000909189010196909389018093880189E377
:100290008093BD015B9844985A984F9950C0449AF6
:1002A0005A9A86E990E00197F1F74F9916C080E0DD
:1002B00091E07BD380918801909189010196909380
:1002C0008901809388018AE28093BD0182E090E0F9
:1002D00090938F0180938E0132C05B9A44988AEF8D
:1002E00090E00197F1F74F9910C080E091E05DD365
:1002F0008091880190918901019690938901809362
:10030000880180E38093BD011AC0449A5A9886E917
:1003100090E00197F1F74F990FC080E091E045D34D
:100320008091880190918901019690938901809331
:10033000880183E28093BD015B9844985A9886E9CE
:1003400090E00197F1F78091BD01803239F0E091A2
:100350008801F0918901E154FE4F808380918801EA
:10036000909189010497ECF00BD38091C0018093A8
:10037000B6018091C1018093B7018091C201809341
:10038000B8018091C3018093B9018093BD0181E0E0
:1003900090E090938D0180938C01109289011092CE
:1003A0008801FF91EF91BF91AF919F918F917F91C4
:1003B0006F915F914F913F912F910F900FBE0F90D2
:1003C0001F9018951F920F920FB60F9211242F9322
:1003D0003F934F935F936F937F938F939F93AF93CD
:1003E000BF93EF93FF932091C6002093BC018091AF
:1003F000900190919101019709F58091860190916A
:1004000087010497C1F5222341F0822F90E00196E5
:10041000909385018093840104C01092850110920D
:100420008401ABD282E091E0C0D22FEF89E698E15F
:10043000215080409040E1F700C000008091900181
:10044000909191010397B9F48091BC01813099F4A6
:1004500081E090E090938F0180938E018ED283E1B2
:1004600091E0A3D22FEF89E698E12150804090409F
:10047000E1F700C000008091BC01813399F47DD286
:1004800082E291E092D22FEF89E698E121508040FC
:100490009040E1F700C0000082E090E090938F016F
:1004A00080938E018091BC01803369F466D281E330
:1004B00091E07BD22FEF89E698E121508040904077
:1004C000E1F700C0000059D2809190019091910114
:1004D000019749F48091860190918701019690934C
:1004E0008701809386018FE19EE40197F1F700C0B8
:1004F0000000FF91EF91BF91AF919F918F917F91FC
:100500006F915F914F913F912F910F900FBE0F9080
:100510001F901895F894CFD27894089585E590E0CF
:10052000F9DF8AEA90E0F6DF81E090E0F3DF80E037
:1005300090E0F0DF81E090E0EDDF80E090E0EADF46
:1005400080E090E0E7DF80E090E0E4DF81E090E0B1
:10055000E1DF80E090E0DEDF82E090E0DBDF81E061
:1005600090E0D8DF089585E590E0D4DF8AEA90E056
:10057000D1DF81E090E0CEDF80E090E0CBDF81E072
:1005800090E0C8DF80E090E0C5DF80E090E0C2DF6F
:1005900080E090E0BFDF82E190E0BCDF80E090E0AF
:1005A000B9DF83E190E0B6DF81E090E0B3DF08954A
:1005B00085E590E0AFDF8AEA90E0ACDF81E090E093
:1005C000A9DF80E090E0A6DF81E090E0A3DF80E09B
:1005D00090E0A0DF80E090E09DDF80E090E09ADF97
:1005E00080E290E097DF80E090E094DF81E290E0AD
:1005F00091DF81E090E08EDF089585E590E08ADF6D
:100600008AEA90E087DF81E090E084DF80E090E09C
:1006100081DF81E090E07EDF80E090E07BDF80E0C2
:1006200090E078DF80E090E075DF86E290E072DFB6
:1006300080E090E06FDF87E290E06CDF81E090E0A7
:1006400069DF089580918401909185014696909389
:1006500083018093820185E590E05CDF8AEA90E087
:1006600059DF81E090E056DF80E090E053DF809139
:100670008401909185014EDF80E090E04BDF80E0C7
:1006800090E048DF80E090E045DF82E290E042DFEA
:1006900080E090E03FDF80918201909183013ADF1A
:1006A00081E090E037DF089588E284B98FE787B969
:1006B0008EE08AB9459A80EF8BB9E8E6F0E0908148
:1006C00094E09093BB019083EDE6F0E090818093FD
:1006D000BB01808378948CE077D183E390E0D0D124
:1006E0002FEF80E792E0215080409040E1F700C07A
:1006F000000014DF2FEF80E792E02150804090400F
:10070000E1F700C000002FDF2FEF80E792E02150DB
:1007100080409040E1F700C00000C3E0D0E00F2E21
:10072000F5E0AF2EB12CF02D6894EE24E2F8F12C18
:1007300001E010E06894CC24C1F8D12C80919001A4
:10074000909191018230910509F470C034F40097C2
:1007500079F08130910549F1F5CF8430910509F4A4
:10076000ABC00CF477C08530910509F4A7C0EACF7F
:1007700004D18AE391E019D180918C0190918D018F
:10078000019751F025E82A95F1F7000080918C013E
:1007900090918D010197B1F710928D0110928C010B
:1007A0001093910100939001C9CF02DF8FEF90E782
:1007B00022E0815090402040E1F700C00000A701F6
:1007C00064E370E086EB91E08BD1892B29F4D09221
:1007D0009101C0929001B2CFD0D086E491E0E5D0F3
:1007E0008FEF98E02DE3815090402040E1F700C06A
:1007F0000000C3D082E591E0D8D080918C01909127
:100800008D01019751F085E88A95F1F700008091FC
:100810008C0190918D010197B1F710928D0110928A
:100820008C01109391010093900188CFA6D08DE5A3
:1008300091E0BBD045989FEF28E08DE39150204098
:100840008040E1F700C00000D0939101C093900177
:10085000459A74CFD2DE9FEF20E782E0915020408E
:100860008040E1F700C0000088D08CE691E09DD088
:100870009FEF28E08DE3915020408040E1F700C0D9
:10088000000010928B0110928A0180918E0190914C
:100890008F01009729F4D0939101C09390014ECF1E
:1008A000019729F4F0929101E092900147CFB09224
:1008B0009101A092900142CFC5DE40CF5ED088E783
:1008C00091E073D09FEF23ED80E391502040804072
:1008D000E1F700C0000010928F0110928E0110927B
:1008E0009101109290012ACF2B9A00002B98089525
:1008F000CF93DF93D82F662311F02D9A01C02D9846
:100900002C9887B18F6087B9C8B1C07F8D2F829531
:100910008F708C2B88B9E8DFDF70DC2BD8B9E4DF6F
:10092000CF60C8B9DF91CF910895882311F02D9A37
:1009300001C02D982C9A87B1807F87B92B9A00002F
:1009400096B12B9800002B9A000086B19295907F6B
:100950008F702B98892B089580E0E7DF8823E4F3DC
:1009600000C000C080E0E1DF0895CF93C82FF4DF1E
:1009700060E08C2FBDDFCF91089581E0F6DF089510
:1009800082E0F3DF0895CF93C82FE6DFCA3041F449
:10099000803410F480E401C080E08058E6DF03C0BA
:1009A00061E08C2FA5DFCF910895CF93DF93EC0109
:1009B0002196FC018081882321F0E5DF8991811156
:1009C000FCCFDF91CF910895CF93C82F87B18F606F
:1009D00087B9259A249A239A8FE99FE00197F1F726
:1009E00000C00000419A409A7FDF81EE94E00197B9
:1009F000F1F700C0000078DF95E19A95F1F700006B
:100A000073DF85E18A95F1F7000040986DDF95E18D
:100A10009A95F1F7000088E2A8DF88E0A6DFADDF55
:100A200086E0A3DF8C2FA1DFCF9108951F920F9254
:100A30000FB60F9211248F939F93EF93FF93909192
:100A4000950180919401981769F0E0919401EF5F0E
:100A5000EF71E0939401F0E0EA56FE4F80818093BD
:100A6000C60005C0E1ECF0E080818F7D8083FF91BE
:100A7000EF919F918F910F900FBE0F901F9018953F
:100A8000109295011092940110929301109292018C
:100A9000992324F422E02093C0009F779093C5000F
:100AA0008093C40088E98093C100E2ECF0E080818B
:100AB000866080830895209195012F5F2F7190911A
:100AC00094012917E1F3E22FF0E0EA56FE4F80830C
:100AD00020939501E1ECF0E08081806280830895AD
:100AE000FB01DC014150504030F08D9105908019A0
:100AF00019F40020B9F7881B990B0895F894FFCFDB
:100B00002A0067657420656E726F6C6C20636F7568
:100B10006E740066696E67657220707265737365C6
:100B20006400726573706F6E7365206572726F72A8
:100B30000061636B20676F6F6400456E746572209F
:100B400050494E3A200050696E20696E76616C699A
:100B50006400456E7465722050494E3A00416363EB
:100B6000657373204772616E746564005363616ED0
:100B70002046696E676572005573657220657869F5
:020B80007400FF
:00000001FF
